S0160000427574746F6E466C617368496E742E7372656379
S113000071C000008EC000008CC000008AC00000D7
S113001088C0000086C0000084C0000082C00000C8
S113002080C000007EC000007CC0000072C10000DF
S113003078C0000076C0000074C0000072C00000E8
S113004070C000006EC000006CC000006AC00000F8
S113005068C0000066C0000064C0000062C0000008
S113006060C000005EC000005CC000005AC0000018
S113007058C0000056C0000054C0000052C0000028
S113008050C000004EC000004CC000004AC0000038
S113009048C0000046C0000044C0000042C0000048
S11300A040C000003EC000003CC000003AC0000058
S11300B038C0000036C0000034C0000032C0000068
S11300C030C000002EC000002CC000002AC0000078
S11300D028C0000026C0000024C0000022C0000088
S11300E020C0000011241FBECFEFD1E2DEBFCDBF80
S11300F000E00CBF12E0A0E0B2E0ECE3F4E000E0CA
S11301000BBF02C007900D92AC30B107D9F722E0C3
S1130110ACE0B2E001C01D92A831B207E1F7C0D053
S11301208BC16ECF80910C0290910D02892B31F41A
S11301308091120290911302009779F180910C0240
S113014090910D02892BA9F010920D0210920C02CD
S1130150E0910E02F0910F02EE0FFF1FE050FE4FF0
S11301608081918190930F0280930E0281E090E050
S113017008951092130210921202E0910E02F0916F
S11301800F02EE0FFF1FEA5FFD4F80819181909374
S11301900F0280930E0281E090E008959C01ADEC83
S11301A0BCEC3BD196958795969587951BC0EFE15E
S11301B0FEE43197F1F700C00000019739F1209176
S11301C00C0230910D02232BD9F4209112023091AC
S11301D01302232B61F314C02091120230911302F5
S11301E0232BA1F4009791F020910C0230910D0281
S11301F0232B31F42091120230911302232BB9F2F4
S113020020910C0230910D02232B31F3089581B318
S11302108F7019F081B3807F81BB88EE93E0BEDFDD
S113022081DF892BD1F30895889A88EE93E0B6DFB5
S113023081B3807F81BB76DF892BF1F4899A88EEC4
S113024093E0ACDF81B3807F81BB6CDF892BA1F4A9
S11302508A9A88EE93E0A2DF81B3807F81BB62DF5C
S1130260892B51F48B9A88EE93E098DF81B3807FD9
S113027081BB58DF892BC1F2089581B38F6081BBA4
S113028088EC90E08BDF81B3807F81BB4BDF892BCF
S113029031F488EE93E082DF45DF892B71F3089512
S11302A078948FE080BB1092070183E080936D0007
S11302B08093080184E08093680081B311BA10929E
S11302C00F0210920E0210920D0210920C02109264
S11302D01302109212021092110210921002109244
S11302E017021092160210921502109214028091B5
S11302F00E0290910F028130910539F08230910500
S113030031F0892BA1F783DFF2CF8EDFF0CFB5DF99
S1130310EECF1F920F920FB60F9211248F939F93DB
S11303208091100290911102892B71F110921102A7
S113033010921002809106018370823079F083302C
S113034021F0813009F062C014C01092170210929B
S11303501602109215021092140258C0109215023F
S11303601092140281E090E09093130280931202A1
S11303704DC0109217021092160281E090E0909303
S11303800D0280930C0242C080910601837081307B
S113039041F170F18230F1F08330C1F580911602A1
S11303A090911702892B59F010921702109216029D
S11303B081E090E090930D0280930C0227C010928C
S11303C015021092140281E090E09093130280933E
S11303D012021CC081E090E09093170280931602F1
S11303E015C081E090E090931502809314020EC032
S11303F081E090E090931102809310029093170291
S11304008093160290931502809314029F918F910A
S11304100F900FBE0F901F901895A29FB001B39F2D
S1130420C001A39F700D811D1124911DB29F700DF9
S10F0430811D1124911D0895F894FFCF44
S10F043C010000000100020002000000AA
S9030000FC
