S0160000427574746F6E466C617368496E742E7372656379
S113000071C000008EC000008CC000008AC00000D7
S113001088C0000086C0000084C0000082C00000C8
S113002080C000007EC000007CC000006AC10000E7
S113003078C0000076C0000074C0000072C00000E8
S113004070C000006EC000006CC000006AC00000F8
S113005068C0000066C0000064C0000062C0000008
S113006060C000005EC000005CC000005AC0000018
S113007058C0000056C0000054C0000052C0000028
S113008050C000004EC000004CC000004AC0000038
S113009048C0000046C0000044C0000042C0000048
S11300A040C000003EC000003CC000003AC0000058
S11300B038C0000036C0000034C0000032C0000068
S11300C030C000002EC000002CC000002AC0000078
S11300D028C0000026C0000024C0000022C0000088
S11300E020C0000011241FBECFEFD1E2DEBFCDBF80
S11300F000E00CBF12E0A0E0B2E0ECE2F4E000E0CB
S11301000BBF02C007900D92AC30B107D9F722E0C3
S1130110ACE0B2E001C01D92AA31B207E1F7C0D051
S113012083C16ECF8091100290911102892B31F41A
S11301308091140290911502009779F18091100238
S113014090911102892BA9F01092110210921002C1
S1130150E0910C02F0910D02EE0FFF1FE050FE4FF4
S11301608081918190930D0280930C0281E090E054
S113017008951092150210921402E0910C02F0916D
S11301800D02EE0FFF1FEA5FFD4F80819181909376
S11301900D0280930C0281E090E008959C01ADEC87
S11301A0BCEC33D196958795969587951BC0EFE166
S11301B0FEE43197F1F700C00000019739F1209176
S11301C0100230911102232BD9F4209114023091A2
S11301D01502232B61F314C02091140230911502EF
S11301E0232BA1F4009791F0209110023091110279
S11301F0232B31F42091140230911502232BB9F2F0
S11302002091100230911102232B31F3089581B310
S11302108F7019F081B3807F81BB88EE93E0BEDFDD
S113022081DF892BD1F30895889A88EE93E0B6DFB5
S113023081B3807F81BB76DF892BF1F4899A88EEC4
S113024093E0ACDF81B3807F81BB6CDF892BA1F4A9
S11302508A9A88EE93E0A2DF81B3807F81BB62DF5C
S1130260892B51F48B9A88EE93E098DF81B3807FD9
S113027081BB58DF892BC1F2089581B38F6081BBA4
S113028088EC90E08BDF81B3807F81BB4BDF892BCF
S113029031F488EE93E082DF45DF892B71F3089512
S11302A078948FE080BB1092070183E080936D0007
S11302B08093080184E08093680081B311BA10929E
S11302C00F0210920E02109211021092100210925C
S11302D015021092140210921302109212028091CD
S11302E00E0290910F028130910539F08230910510
S11302F031F00097C1F78BDFF2CF96DFF0CFBDDF8F
S1130300EECF1F920F920FB60F9211248F939F93EB
S11303108091120290911302892B71F110921302B1
S113032010921202809106018370823079F083303A
S113033021F0813009F062C014C0109219021092A9
S11303401802109217021092160258C01092170247
S11303501092160281E090E09093150280931402AB
S11303604DC0109219021092180281E090E090930F
S113037011028093100242C0809106018370813083
S113038041F170F18230F1F08330C1F580911802AF
S113039090911902892B59F01092190210921802A7
S11303A081E090E0909311028093100227C0109294
S11303B017021092160281E090E090931502809348
S11303C014021CC081E090E09093190280931802FB
S11303D015C081E090E090931702809316020EC03E
S11303E081E090E09093130280931202909317029D
S11303F08093160290931902809318029F918F9113
S11304000F900FBE0F901F901895A29FB001B39F3D
S1130410C001A39F700D811D1124911DB29F700D09
S10F0420811D1124911D0895F894FFCF54
S10F042C010000000100020002000000BA
S9030000FC
